{
  "contractName": "Factory",
  "abi": [
    {
      "constant": true,
      "inputs": [
        {
          "internalType": "uint256",
          "name": "",
          "type": "uint256"
        }
      ],
      "name": "deployedEnergySalesAddresses",
      "outputs": [
        {
          "internalType": "contract EnergySale",
          "name": "",
          "type": "address"
        }
      ],
      "payable": false,
      "stateMutability": "view",
      "type": "function"
    },
    {
      "constant": false,
      "inputs": [
        {
          "internalType": "uint256",
          "name": "minimum",
          "type": "uint256"
        },
        {
          "internalType": "uint256",
          "name": "energySold",
          "type": "uint256"
        }
      ],
      "name": "createEnergySale",
      "outputs": [],
      "payable": false,
      "stateMutability": "nonpayable",
      "type": "function"
    },
    {
      "constant": true,
      "inputs": [],
      "name": "getDeployedEnergySalesAddresses",
      "outputs": [
        {
          "internalType": "contract EnergySale[]",
          "name": "",
          "type": "address[]"
        }
      ],
      "payable": false,
      "stateMutability": "view",
      "type": "function"
    }
  ],
  "bytecode": "0x608060405234801561001057600080fd5b50610972806100206000396000f3fe608060405234801561001057600080fd5b50600436106100415760003560e01c80632bb7f9e7146100465780638a99dfc9146100b4578063b9fcf519146100ec575b600080fd5b6100726004803603602081101561005c57600080fd5b810190808035906020019092919050505061014b565b604051808273ffffffffffffffffffffffffffffffffffffffff1673ffffffffffffffffffffffffffffffffffffffff16815260200191505060405180910390f35b6100ea600480360360408110156100ca57600080fd5b810190808035906020019092919080359060200190929190505050610187565b005b6100f4610266565b6040518080602001828103825283818151815260200191508051906020019060200280838360005b8381101561013757808201518184015260208101905061011c565b505050509050019250505060405180910390f35b6000818154811061015857fe5b906000526020600020016000915054906101000a900473ffffffffffffffffffffffffffffffffffffffff1681565b6000828233604051610198906102f4565b808481526020018381526020018273ffffffffffffffffffffffffffffffffffffffff1673ffffffffffffffffffffffffffffffffffffffff1681526020019350505050604051809103906000f0801580156101f8573d6000803e3d6000fd5b50905060008190806001815401808255809150509060018203906000526020600020016000909192909190916101000a81548173ffffffffffffffffffffffffffffffffffffffff021916908373ffffffffffffffffffffffffffffffffffffffff16021790555050505050565b606060008054806020026020016040519081016040528092919081815260200182805480156102ea57602002820191906000526020600020905b8160009054906101000a900473ffffffffffffffffffffffffffffffffffffffff1673ffffffffffffffffffffffffffffffffffffffff16815260200190600101908083116102a0575b5050505050905090565b61063c806103028339019056fe608060405234801561001057600080fd5b5060405161063c38038061063c8339818101604052606081101561003357600080fd5b81019080805190602001909291908051906020019092919080519060200190929190505050806000806101000a81548173ffffffffffffffffffffffffffffffffffffffff021916908373ffffffffffffffffffffffffffffffffffffffff16021790555082600581905550816002819055504260068190555050505061057d806100bf6000396000f3fe6080604052600436106100915760003560e01c8063937e09b111610059578063937e09b114610187578063be9a6555146101b2578063d57bde79146101dd578063deaa7eb714610208578063f85fe8ad1461023357610091565b806308551a53146100965780631998aeef146100ed57806345710074146100f7578063522e1177146101015780637150d8ae14610130575b600080fd5b3480156100a257600080fd5b506100ab61028a565b604051808273ffffffffffffffffffffffffffffffffffffffff1673ffffffffffffffffffffffffffffffffffffffff16815260200191505060405180910390f35b6100f56102af565b005b6100ff61037f565b005b34801561010d57600080fd5b506101166104d1565b604051808215151515815260200191505060405180910390f35b34801561013c57600080fd5b506101456104e4565b604051808273ffffffffffffffffffffffffffffffffffffffff1673ffffffffffffffffffffffffffffffffffffffff16815260200191505060405180910390f35b34801561019357600080fd5b5061019c61050a565b6040518082815260200191505060405180910390f35b3480156101be57600080fd5b506101c7610510565b6040518082815260200191505060405180910390f35b3480156101e957600080fd5b506101f2610516565b6040518082815260200191505060405180910390f35b34801561021457600080fd5b5061021d61051c565b6040518082815260200191505060405180910390f35b34801561023f57600080fd5b50610248610522565b604051808273ffffffffffffffffffffffffffffffffffffffff1673ffffffffffffffffffffffffffffffffffffffff16815260200191505060405180910390f35b6000809054906101000a900473ffffffffffffffffffffffffffffffffffffffff1681565b600554341180156102c1575060035434115b6102ca57600080fd5b600460009054906101000a900473ffffffffffffffffffffffffffffffffffffffff1673ffffffffffffffffffffffffffffffffffffffff166108fc6003549081150290604051600060405180830381858888f19350505050158015610334573d6000803e3d6000fd5b503460038190555033600460006101000a81548173ffffffffffffffffffffffffffffffffffffffff021916908373ffffffffffffffffffffffffffffffffffffffff160217905550565b6000809054906101000a900473ffffffffffffffffffffffffffffffffffffffff1673ffffffffffffffffffffffffffffffffffffffff163373ffffffffffffffffffffffffffffffffffffffff16146103d857600080fd5b6006544210156103e757600080fd5b6000809054906101000a900473ffffffffffffffffffffffffffffffffffffffff1673ffffffffffffffffffffffffffffffffffffffff166108fc6003549081150290604051600060405180830381858888f19350505050158015610450573d6000803e3d6000fd5b50600460009054906101000a900473ffffffffffffffffffffffffffffffffffffffff16600160006101000a81548173ffffffffffffffffffffffffffffffffffffffff021916908373ffffffffffffffffffffffffffffffffffffffff1602179055506001600760006101000a81548160ff021916908315150217905550565b600760009054906101000a900460ff1681565b600160009054906101000a900473ffffffffffffffffffffffffffffffffffffffff1681565b60055481565b60065481565b60035481565b60025481565b600460009054906101000a900473ffffffffffffffffffffffffffffffffffffffff168156fea265627a7a7231582099180ebd1cbccf363ef9e81b5e308bfeb859187ae5bc249081baf6c54f997cb064736f6c63430005100032a265627a7a723158202693321256f1e58ad22122eb6953717494bd289fc459ec325d97ea5f9766c60b64736f6c63430005100032",
  "source": "//SPDX-License-Identifier: MIT\r\npragma solidity ^0.5.16;\r\n\r\ncontract Factory {\r\n    EnergySale[] public deployedEnergySalesAddresses;\r\n\r\n    function createEnergySale(uint256 minimum, uint256 energySold) public {\r\n        EnergySale energySale = new EnergySale(minimum, energySold, msg.sender);\r\n        deployedEnergySalesAddresses.push(energySale);\r\n    }\r\n\r\n    function getDeployedEnergySalesAddresses()\r\n        public\r\n        view\r\n        returns (EnergySale[] memory)\r\n    {\r\n        return deployedEnergySalesAddresses;\r\n    }\r\n}\r\n\r\ncontract EnergySale {\r\n    address payable public seller;\r\n    address public buyer;\r\n    uint256 public energySold;\r\n    uint256 public highestBid;\r\n    address payable public highestBidderAddress;\r\n    uint256 public minimumContribution;\r\n    uint256 public start;\r\n    bool public complete;\r\n\r\n    modifier restricted() {\r\n        require(msg.sender == seller);\r\n        _;\r\n    }\r\n\r\n    constructor(\r\n        uint256 _minimum,\r\n        uint256 _energySold,\r\n        address payable creator\r\n    ) public {\r\n        seller = creator;\r\n        minimumContribution = _minimum;\r\n        energySold = _energySold;\r\n        start = block.timestamp;\r\n    }\r\n\r\n    function bid() public payable {\r\n        require(msg.value > minimumContribution && msg.value > highestBid);\r\n\r\n        highestBidderAddress.transfer(highestBid);\r\n        highestBid = msg.value;\r\n        highestBidderAddress = msg.sender;\r\n    }\r\n\r\n    function sell() public payable restricted {\r\n        require(block.timestamp >= start);\r\n\r\n        seller.transfer(highestBid);\r\n        buyer = highestBidderAddress;\r\n        complete = true;\r\n    }\r\n}\r\n",
  "sourcePath": "C:\\Users\\Geline\\Solidity\\contracts\\EnergyTrading.sol",
  "compiler": {
    "name": "solc",
    "version": "0.5.16+commit.9c3226ce.Emscripten.clang"
  },
  "schemaVersion": "3.4.3",
  "updatedAt": "2021-09-28T16:41:06.586Z",
  "networkType": "ethereum",
  "devdoc": {
    "methods": {}
  },
  "userdoc": {
    "methods": {}
  }
}